{
  "address": "0xb74de3F91e04d0920ff26Ac28956272E8d67404D",
  "abi": [
    {
      "inputs": [
        {
          "internalType": "uint256",
          "name": "threshold_",
          "type": "uint256"
        }
      ],
      "stateMutability": "nonpayable",
      "type": "constructor"
    },
    {
      "anonymous": false,
      "inputs": [
        {
          "indexed": true,
          "internalType": "address",
          "name": "owner",
          "type": "address"
        },
        {
          "indexed": true,
          "internalType": "address",
          "name": "approved",
          "type": "address"
        },
        {
          "indexed": true,
          "internalType": "uint256",
          "name": "tokenId",
          "type": "uint256"
        }
      ],
      "name": "Approval",
      "type": "event"
    },
    {
      "anonymous": false,
      "inputs": [
        {
          "indexed": true,
          "internalType": "address",
          "name": "owner",
          "type": "address"
        },
        {
          "indexed": true,
          "internalType": "address",
          "name": "operator",
          "type": "address"
        },
        {
          "indexed": false,
          "internalType": "bool",
          "name": "approved",
          "type": "bool"
        }
      ],
      "name": "ApprovalForAll",
      "type": "event"
    },
    {
      "anonymous": false,
      "inputs": [
        {
          "indexed": true,
          "internalType": "address",
          "name": "previousOwner",
          "type": "address"
        },
        {
          "indexed": true,
          "internalType": "address",
          "name": "newOwner",
          "type": "address"
        }
      ],
      "name": "OwnershipTransferred",
      "type": "event"
    },
    {
      "anonymous": false,
      "inputs": [
        {
          "indexed": false,
          "internalType": "address",
          "name": "account",
          "type": "address"
        }
      ],
      "name": "Paused",
      "type": "event"
    },
    {
      "anonymous": false,
      "inputs": [
        {
          "indexed": true,
          "internalType": "address",
          "name": "from",
          "type": "address"
        },
        {
          "indexed": true,
          "internalType": "address",
          "name": "to",
          "type": "address"
        },
        {
          "indexed": true,
          "internalType": "uint256",
          "name": "tokenId",
          "type": "uint256"
        }
      ],
      "name": "Transfer",
      "type": "event"
    },
    {
      "anonymous": false,
      "inputs": [
        {
          "indexed": false,
          "internalType": "address",
          "name": "account",
          "type": "address"
        }
      ],
      "name": "Unpaused",
      "type": "event"
    },
    {
      "inputs": [
        {
          "internalType": "address",
          "name": "to",
          "type": "address"
        },
        {
          "internalType": "uint256",
          "name": "tokenId",
          "type": "uint256"
        }
      ],
      "name": "approve",
      "outputs": [],
      "stateMutability": "nonpayable",
      "type": "function"
    },
    {
      "inputs": [
        {
          "internalType": "address",
          "name": "owner",
          "type": "address"
        }
      ],
      "name": "balanceOf",
      "outputs": [
        {
          "internalType": "uint256",
          "name": "",
          "type": "uint256"
        }
      ],
      "stateMutability": "view",
      "type": "function"
    },
    {
      "inputs": [
        {
          "internalType": "uint256",
          "name": "tokenId",
          "type": "uint256"
        }
      ],
      "name": "getApproved",
      "outputs": [
        {
          "internalType": "address",
          "name": "",
          "type": "address"
        }
      ],
      "stateMutability": "view",
      "type": "function"
    },
    {
      "inputs": [
        {
          "internalType": "address",
          "name": "",
          "type": "address"
        }
      ],
      "name": "hasClaimed",
      "outputs": [
        {
          "internalType": "bool",
          "name": "",
          "type": "bool"
        }
      ],
      "stateMutability": "view",
      "type": "function"
    },
    {
      "inputs": [
        {
          "internalType": "address",
          "name": "owner",
          "type": "address"
        },
        {
          "internalType": "address",
          "name": "operator",
          "type": "address"
        }
      ],
      "name": "isApprovedForAll",
      "outputs": [
        {
          "internalType": "bool",
          "name": "",
          "type": "bool"
        }
      ],
      "stateMutability": "view",
      "type": "function"
    },
    {
      "inputs": [
        {
          "internalType": "uint256",
          "name": "tokenId_",
          "type": "uint256"
        }
      ],
      "name": "lick",
      "outputs": [],
      "stateMutability": "nonpayable",
      "type": "function"
    },
    {
      "inputs": [
        {
          "internalType": "uint256",
          "name": "",
          "type": "uint256"
        }
      ],
      "name": "lickTime",
      "outputs": [
        {
          "internalType": "uint256",
          "name": "",
          "type": "uint256"
        }
      ],
      "stateMutability": "view",
      "type": "function"
    },
    {
      "inputs": [
        {
          "internalType": "uint256",
          "name": "",
          "type": "uint256"
        }
      ],
      "name": "licks",
      "outputs": [
        {
          "internalType": "uint256",
          "name": "",
          "type": "uint256"
        }
      ],
      "stateMutability": "view",
      "type": "function"
    },
    {
      "inputs": [],
      "name": "mint",
      "outputs": [],
      "stateMutability": "nonpayable",
      "type": "function"
    },
    {
      "inputs": [],
      "name": "name",
      "outputs": [
        {
          "internalType": "string",
          "name": "",
          "type": "string"
        }
      ],
      "stateMutability": "view",
      "type": "function"
    },
    {
      "inputs": [],
      "name": "owner",
      "outputs": [
        {
          "internalType": "address",
          "name": "",
          "type": "address"
        }
      ],
      "stateMutability": "view",
      "type": "function"
    },
    {
      "inputs": [
        {
          "internalType": "uint256",
          "name": "tokenId",
          "type": "uint256"
        }
      ],
      "name": "ownerOf",
      "outputs": [
        {
          "internalType": "address",
          "name": "",
          "type": "address"
        }
      ],
      "stateMutability": "view",
      "type": "function"
    },
    {
      "inputs": [],
      "name": "pause",
      "outputs": [],
      "stateMutability": "nonpayable",
      "type": "function"
    },
    {
      "inputs": [],
      "name": "paused",
      "outputs": [
        {
          "internalType": "bool",
          "name": "",
          "type": "bool"
        }
      ],
      "stateMutability": "view",
      "type": "function"
    },
    {
      "inputs": [],
      "name": "renounceOwnership",
      "outputs": [],
      "stateMutability": "nonpayable",
      "type": "function"
    },
    {
      "inputs": [
        {
          "internalType": "address",
          "name": "from",
          "type": "address"
        },
        {
          "internalType": "address",
          "name": "to",
          "type": "address"
        },
        {
          "internalType": "uint256",
          "name": "tokenId",
          "type": "uint256"
        }
      ],
      "name": "safeTransferFrom",
      "outputs": [],
      "stateMutability": "nonpayable",
      "type": "function"
    },
    {
      "inputs": [
        {
          "internalType": "address",
          "name": "from",
          "type": "address"
        },
        {
          "internalType": "address",
          "name": "to",
          "type": "address"
        },
        {
          "internalType": "uint256",
          "name": "tokenId",
          "type": "uint256"
        },
        {
          "internalType": "bytes",
          "name": "_data",
          "type": "bytes"
        }
      ],
      "name": "safeTransferFrom",
      "outputs": [],
      "stateMutability": "nonpayable",
      "type": "function"
    },
    {
      "inputs": [
        {
          "internalType": "address",
          "name": "operator",
          "type": "address"
        },
        {
          "internalType": "bool",
          "name": "approved",
          "type": "bool"
        }
      ],
      "name": "setApprovalForAll",
      "outputs": [],
      "stateMutability": "nonpayable",
      "type": "function"
    },
    {
      "inputs": [
        {
          "internalType": "bytes4",
          "name": "interfaceId",
          "type": "bytes4"
        }
      ],
      "name": "supportsInterface",
      "outputs": [
        {
          "internalType": "bool",
          "name": "",
          "type": "bool"
        }
      ],
      "stateMutability": "view",
      "type": "function"
    },
    {
      "inputs": [],
      "name": "symbol",
      "outputs": [
        {
          "internalType": "string",
          "name": "",
          "type": "string"
        }
      ],
      "stateMutability": "view",
      "type": "function"
    },
    {
      "inputs": [],
      "name": "threshold",
      "outputs": [
        {
          "internalType": "uint256",
          "name": "",
          "type": "uint256"
        }
      ],
      "stateMutability": "view",
      "type": "function"
    },
    {
      "inputs": [
        {
          "internalType": "uint256",
          "name": "index",
          "type": "uint256"
        }
      ],
      "name": "tokenByIndex",
      "outputs": [
        {
          "internalType": "uint256",
          "name": "",
          "type": "uint256"
        }
      ],
      "stateMutability": "view",
      "type": "function"
    },
    {
      "inputs": [
        {
          "internalType": "address",
          "name": "owner",
          "type": "address"
        },
        {
          "internalType": "uint256",
          "name": "index",
          "type": "uint256"
        }
      ],
      "name": "tokenOfOwnerByIndex",
      "outputs": [
        {
          "internalType": "uint256",
          "name": "",
          "type": "uint256"
        }
      ],
      "stateMutability": "view",
      "type": "function"
    },
    {
      "inputs": [
        {
          "internalType": "uint256",
          "name": "tokenId_",
          "type": "uint256"
        }
      ],
      "name": "tokenURI",
      "outputs": [
        {
          "internalType": "string",
          "name": "",
          "type": "string"
        }
      ],
      "stateMutability": "view",
      "type": "function"
    },
    {
      "inputs": [],
      "name": "totalSupply",
      "outputs": [
        {
          "internalType": "uint256",
          "name": "",
          "type": "uint256"
        }
      ],
      "stateMutability": "view",
      "type": "function"
    },
    {
      "inputs": [
        {
          "internalType": "address",
          "name": "from",
          "type": "address"
        },
        {
          "internalType": "address",
          "name": "to",
          "type": "address"
        },
        {
          "internalType": "uint256",
          "name": "tokenId",
          "type": "uint256"
        }
      ],
      "name": "transferFrom",
      "outputs": [],
      "stateMutability": "nonpayable",
      "type": "function"
    },
    {
      "inputs": [
        {
          "internalType": "address",
          "name": "newOwner",
          "type": "address"
        }
      ],
      "name": "transferOwnership",
      "outputs": [],
      "stateMutability": "nonpayable",
      "type": "function"
    },
    {
      "inputs": [],
      "name": "unpause",
      "outputs": [],
      "stateMutability": "nonpayable",
      "type": "function"
    },
    {
      "stateMutability": "payable",
      "type": "receive"
    }
  ],
  "transactionHash": "0xc2dbf552bcc06d25284d7f845986f85f44f73cab1a96b89d269eeda66706c6ee",
  "args": [
    180
  ],
  "solcInputHash": "8778743fbed6f5880f4329198b85eed5",
  "bytecode": "0x60a06040523480156200001157600080fd5b5060405162003fd038038062003fd08339810160408190526200003491620001ca565b604080518082018252600d81526c1258d94810dc99585b48139195609a1b6020808301918252835180850190945260048452634c49434b60e01b908401528151919291620000859160009162000124565b5080516200009b90600190602084019062000124565b505050620000b8620000b2620000ce60201b60201c565b620000d2565b600a805460ff60a01b1916905560805262000221565b3390565b600a80546001600160a01b038381166001600160a01b0319831681179093556040519116919082907f8be0079c531659141344cd1fd0a4f28419497f9722a3daafe3b4186f6b6457e090600090a35050565b8280546200013290620001e4565b90600052602060002090601f016020900481019282620001565760008555620001a1565b82601f106200017157805160ff1916838001178555620001a1565b82800160010185558215620001a1579182015b82811115620001a157825182559160200191906001019062000184565b50620001af929150620001b3565b5090565b5b80821115620001af5760008155600101620001b4565b600060208284031215620001dd57600080fd5b5051919050565b600181811c90821680620001f957607f821691505b602082108114156200021b57634e487b7160e01b600052602260045260246000fd5b50919050565b608051613d8c620002446000396000818161038001526109530152613d8c6000f3fe6080604052600436106101bb5760003560e01c80635c975abb116100ec57806395d89b411161008a578063c87b56dd11610064578063c87b56dd146104ee578063e985e9c51461050e578063f2fde38b14610557578063f6cc68e21461057757600080fd5b806395d89b4114610499578063a22cb465146104ae578063b88d4fde146104ce57600080fd5b8063715018a6116100c6578063715018a61461042157806373b2e80e146104365780638456cb59146104665780638da5cb5b1461047b57600080fd5b80635c975abb146103c25780636352211e146103e157806370a082311461040157600080fd5b806323b872dd116101595780633f4ba83a116101335780633f4ba83a1461033957806342842e0e1461034e57806342cde4e81461036e5780634f6ccce7146103a257600080fd5b806323b872dd146102d95780632a3220e6146102f95780632f745c591461031957600080fd5b8063095ea7b311610195578063095ea7b3146102565780631249c58b1461027857806318160ddd1461028d57806318f5d72f146102ac57600080fd5b806301ffc9a7146101c757806306fdde03146101fc578063081812fc1461021e57600080fd5b366101c257005b600080fd5b3480156101d357600080fd5b506101e76101e2366004611f0b565b6105a4565b60405190151581526020015b60405180910390f35b34801561020857600080fd5b506102116105cf565b6040516101f39190612fd7565b34801561022a57600080fd5b5061023e610239366004611f45565b610661565b6040516001600160a01b0390911681526020016101f3565b34801561026257600080fd5b50610276610271366004611ee1565b6106fb565b005b34801561028457600080fd5b50610276610811565b34801561029957600080fd5b506008545b6040519081526020016101f3565b3480156102b857600080fd5b5061029e6102c7366004611f45565b600b6020526000908152604090205481565b3480156102e557600080fd5b506102766102f4366004611d8d565b6108b4565b34801561030557600080fd5b50610276610314366004611f45565b6108e5565b34801561032557600080fd5b5061029e610334366004611ee1565b610a01565b34801561034557600080fd5b50610276610a97565b34801561035a57600080fd5b50610276610369366004611d8d565b610acb565b34801561037a57600080fd5b5061029e7f000000000000000000000000000000000000000000000000000000000000000081565b3480156103ae57600080fd5b5061029e6103bd366004611f45565b610ae6565b3480156103ce57600080fd5b50600a54600160a01b900460ff166101e7565b3480156103ed57600080fd5b5061023e6103fc366004611f45565b610b79565b34801561040d57600080fd5b5061029e61041c366004611d38565b610bf0565b34801561042d57600080fd5b50610276610c77565b34801561044257600080fd5b506101e7610451366004611d38565b600d6020526000908152604090205460ff1681565b34801561047257600080fd5b50610276610cab565b34801561048757600080fd5b50600a546001600160a01b031661023e565b3480156104a557600080fd5b50610211610cdd565b3480156104ba57600080fd5b506102766104c9366004611ea5565b610cec565b3480156104da57600080fd5b506102766104e9366004611dc9565b610db1565b3480156104fa57600080fd5b50610211610509366004611f45565b610de9565b34801561051a57600080fd5b506101e7610529366004611d5a565b6001600160a01b03918216600090815260056020908152604080832093909416825291909152205460ff1690565b34801561056357600080fd5b50610276610572366004611d38565b610ed8565b34801561058357600080fd5b5061029e610592366004611f45565b600c6020526000908152604090205481565b60006001600160e01b0319821663780e9d6360e01b14806105c957506105c982610f70565b92915050565b6060600080546105de90613175565b80601f016020809104026020016040519081016040528092919081815260200182805461060a90613175565b80156106575780601f1061062c57610100808354040283529160200191610657565b820191906000526020600020905b81548152906001019060200180831161063a57829003601f168201915b5050505050905090565b6000818152600260205260408120546001600160a01b03166106df5760405162461bcd60e51b815260206004820152602c60248201527f4552433732313a20617070726f76656420717565727920666f72206e6f6e657860448201526b34b9ba32b73a103a37b5b2b760a11b60648201526084015b60405180910390fd5b506000908152600460205260409020546001600160a01b031690565b600061070682610b79565b9050806001600160a01b0316836001600160a01b031614156107745760405162461bcd60e51b815260206004820152602160248201527f4552433732313a20617070726f76616c20746f2063757272656e74206f776e656044820152603960f91b60648201526084016106d6565b336001600160a01b038216148061079057506107908133610529565b6108025760405162461bcd60e51b815260206004820152603860248201527f4552433732313a20617070726f76652063616c6c6572206973206e6f74206f7760448201527f6e6572206e6f7220617070726f76656420666f7220616c6c000000000000000060648201526084016106d6565b61080c8383610fc0565b505050565b336000908152600d602052604090205460ff16156108635760405162461bcd60e51b815260206004820152600f60248201526e185b1c9958591e4818db185a5b5959608a1b60448201526064016106d6565b600061086e60085490565b6108799060016130c2565b6000818152600c6020908152604080832042905533808452600d909252909120805460ff191660011790559091506108b1908261102e565b50565b6108be338261104c565b6108da5760405162461bcd60e51b81526004016106d690613071565b61080c838383611143565b6000818152600260205260409020546001600160a01b03166109425760405162461bcd60e51b81526020600482015260166024820152751d1bdad95b925908191bd95cc81b9bdd08195e1a5cdd60521b60448201526064016106d6565b6000818152600c60205260409020547f00000000000000000000000000000000000000000000000000000000000000009061097d9042613132565b116109ca5760405162461bcd60e51b815260206004820152601860248201527f627261696e667265657a652c2063616e6e6f74206c69636b000000000000000060448201526064016106d6565b6000818152600b602052604081208054600192906109e99084906130c2565b90915550506000908152600c60205260409020429055565b6000610a0c83610bf0565b8210610a6e5760405162461bcd60e51b815260206004820152602b60248201527f455243373231456e756d657261626c653a206f776e657220696e646578206f7560448201526a74206f6620626f756e647360a81b60648201526084016106d6565b506001600160a01b03919091166000908152600660209081526040808320938352929052205490565b600a546001600160a01b03163314610ac15760405162461bcd60e51b81526004016106d69061303c565b610ac96112ee565b565b61080c83838360405180602001604052806000815250610db1565b6000610af160085490565b8210610b545760405162461bcd60e51b815260206004820152602c60248201527f455243373231456e756d657261626c653a20676c6f62616c20696e646578206f60448201526b7574206f6620626f756e647360a01b60648201526084016106d6565b60088281548110610b6757610b67613221565b90600052602060002001549050919050565b6000818152600260205260408120546001600160a01b0316806105c95760405162461bcd60e51b815260206004820152602960248201527f4552433732313a206f776e657220717565727920666f72206e6f6e657869737460448201526832b73a103a37b5b2b760b91b60648201526084016106d6565b60006001600160a01b038216610c5b5760405162461bcd60e51b815260206004820152602a60248201527f4552433732313a2062616c616e636520717565727920666f7220746865207a65604482015269726f206164647265737360b01b60648201526084016106d6565b506001600160a01b031660009081526003602052604090205490565b600a546001600160a01b03163314610ca15760405162461bcd60e51b81526004016106d69061303c565b610ac9600061138b565b600a546001600160a01b03163314610cd55760405162461bcd60e51b81526004016106d69061303c565b610ac96113dd565b6060600180546105de90613175565b6001600160a01b038216331415610d455760405162461bcd60e51b815260206004820152601960248201527f4552433732313a20617070726f766520746f2063616c6c65720000000000000060448201526064016106d6565b3360008181526005602090815260408083206001600160a01b03871680855290835292819020805460ff191686151590811790915590519081529192917f17307eab39ab6107e8899845ad3d59bd9653f200f220920489ca2b5937696c31910160405180910390a35050565b610dbb338361104c565b610dd75760405162461bcd60e51b81526004016106d690613071565b610de384848484611465565b50505050565b6000818152600b6020526040902054606090610e03611cf5565b610e0c82611498565b8152610e1782611590565b6020828101918252604080518082018252600d81526c1e17ba32bc3a1f1e17b9bb339f60991b81840152818501819052845193519151600094610e5e94909392910161237c565b60405160208183030381529060405290506000610eab610e7d87611590565b610e86846116b9565b604051602001610e97929190612eab565b6040516020818303038152906040526116b9565b905080604051602001610ebe9190612e66565b60408051601f198184030181529190529695505050505050565b600a546001600160a01b03163314610f025760405162461bcd60e51b81526004016106d69061303c565b6001600160a01b038116610f675760405162461bcd60e51b815260206004820152602660248201527f4f776e61626c653a206e6577206f776e657220697320746865207a65726f206160448201526564647265737360d01b60648201526084016106d6565b6108b18161138b565b60006001600160e01b031982166380ac58cd60e01b1480610fa157506001600160e01b03198216635b5e139f60e01b145b806105c957506301ffc9a760e01b6001600160e01b03198316146105c9565b600081815260046020526040902080546001600160a01b0319166001600160a01b0384169081179091558190610ff582610b79565b6001600160a01b03167f8c5be1e5ebec7d5bd14f71427d1e84f3dd0314c0f7b2291e5b200ac8c7c3b92560405160405180910390a45050565b61104882826040518060200160405280600081525061181f565b5050565b6000818152600260205260408120546001600160a01b03166110c55760405162461bcd60e51b815260206004820152602c60248201527f4552433732313a206f70657261746f7220717565727920666f72206e6f6e657860448201526b34b9ba32b73a103a37b5b2b760a11b60648201526084016106d6565b60006110d083610b79565b9050806001600160a01b0316846001600160a01b0316148061110b5750836001600160a01b031661110084610661565b6001600160a01b0316145b8061113b57506001600160a01b0380821660009081526005602090815260408083209388168352929052205460ff165b949350505050565b826001600160a01b031661115682610b79565b6001600160a01b0316146111be5760405162461bcd60e51b815260206004820152602960248201527f4552433732313a207472616e73666572206f6620746f6b656e2074686174206960448201526839903737ba1037bbb760b91b60648201526084016106d6565b6001600160a01b0382166112205760405162461bcd60e51b8152602060048201526024808201527f4552433732313a207472616e7366657220746f20746865207a65726f206164646044820152637265737360e01b60648201526084016106d6565b61122b838383611852565b611236600082610fc0565b6001600160a01b038316600090815260036020526040812080546001929061125f908490613132565b90915550506001600160a01b038216600090815260036020526040812080546001929061128d9084906130c2565b909155505060008181526002602052604080822080546001600160a01b0319166001600160a01b0386811691821790925591518493918716917fddf252ad1be2c89b69c2b068fc378daa952ba7f163c4a11628f55a4df523b3ef91a4505050565b600a54600160a01b900460ff1661133e5760405162461bcd60e51b815260206004820152601460248201527314185d5cd8589b194e881b9bdd081c185d5cd95960621b60448201526064016106d6565b600a805460ff60a01b191690557f5db9ee0a495bf2e6ff9c91a7834c1ba4fdd244a5e8aa4e537bd38aeae4b073aa335b6040516001600160a01b03909116815260200160405180910390a1565b600a80546001600160a01b038381166001600160a01b0319831681179093556040519116919082907f8be0079c531659141344cd1fd0a4f28419497f9722a3daafe3b4186f6b6457e090600090a35050565b600a54600160a01b900460ff161561142a5760405162461bcd60e51b815260206004820152601060248201526f14185d5cd8589b194e881c185d5cd95960821b60448201526064016106d6565b600a805460ff60a01b1916600160a01b1790557f62e78cea01bee320cd4e420270b5ea74000d11b0c9f74754ebdbfc544b05a25861136e3390565b611470848484611143565b61147c8484848461190a565b610de35760405162461bcd60e51b81526004016106d690612fea565b6060600060405180610a0001604052806109ca81526020016132646109ca913990506114c56005846131cb565b6114f057806040516020016114da9190612822565b6040516020818303038152906040529050611568565b6114fb6005846131cb565b6001141561151457806040516020016114da9190612400565b61151f6005846131cb565b6002141561153857806040516020016114da9190612e46565b6115436005846131cb565b600414156115685760405180610120016040528060e98152602001613c6e60e9913990505b8060405160200161157991906123bf565b604051602081830303815290604052915050919050565b6060816115b45750506040805180820190915260018152600360fc1b602082015290565b8160005b81156115de57806115c8816131b0565b91506115d79050600a836130ff565b91506115b8565b60008167ffffffffffffffff8111156115f9576115f9613237565b6040519080825280601f01601f191660200182016040528015611623576020820181803683370190505b509050815b85156116b057611639600182613132565b90506000611648600a886130ff565b61165390600a613113565b61165d9088613132565b6116689060306130da565b905060008160f81b90508084848151811061168557611685613221565b60200101906001600160f81b031916908160001a9053506116a7600a896130ff565b97505050611628565b50949350505050565b8051606090806116d9575050604080516020810190915260008152919050565b600060036116e88360026130c2565b6116f291906130ff565b6116fd906004613113565b9050600061170c8260206130c2565b67ffffffffffffffff81111561172457611724613237565b6040519080825280601f01601f19166020018201604052801561174e576020820181803683370190505b5090506000604051806060016040528060408152602001613c2e604091399050600181016020830160005b868110156117da576003818a01810151603f601282901c8116860151600c83901c8216870151600684901c831688015192909316870151600891821b60ff94851601821b92841692909201901b91160160e01b835260049092019101611779565b5060038606600181146117f4576002811461180557611811565b613d3d60f01b600119830152611811565b603d60f81b6000198301525b505050918152949350505050565b6118298383611a17565b611836600084848461190a565b61080c5760405162461bcd60e51b81526004016106d690612fea565b6001600160a01b0383166118ad576118a881600880546000838152600960205260408120829055600182018355919091527ff3f7a9fe364faab93b216da50a3214154f22a0a2b415b23a84c8169e8b636ee30155565b6118d0565b816001600160a01b0316836001600160a01b0316146118d0576118d08382611b65565b6001600160a01b0382166118e75761080c81611c02565b826001600160a01b0316826001600160a01b03161461080c5761080c8282611cb1565b60006001600160a01b0384163b15611a0c57604051630a85bd0160e11b81526001600160a01b0385169063150b7a029061194e903390899088908890600401612f9a565b602060405180830381600087803b15801561196857600080fd5b505af1925050508015611998575060408051601f3d908101601f1916820190925261199591810190611f28565b60015b6119f2573d8080156119c6576040519150601f19603f3d011682016040523d82523d6000602084013e6119cb565b606091505b5080516119ea5760405162461bcd60e51b81526004016106d690612fea565b805181602001fd5b6001600160e01b031916630a85bd0160e11b14905061113b565b506001949350505050565b6001600160a01b038216611a6d5760405162461bcd60e51b815260206004820181905260248201527f4552433732313a206d696e7420746f20746865207a65726f206164647265737360448201526064016106d6565b6000818152600260205260409020546001600160a01b031615611ad25760405162461bcd60e51b815260206004820152601c60248201527f4552433732313a20746f6b656e20616c7265616479206d696e7465640000000060448201526064016106d6565b611ade60008383611852565b6001600160a01b0382166000908152600360205260408120805460019290611b079084906130c2565b909155505060008181526002602052604080822080546001600160a01b0319166001600160a01b03861690811790915590518392907fddf252ad1be2c89b69c2b068fc378daa952ba7f163c4a11628f55a4df523b3ef908290a45050565b60006001611b7284610bf0565b611b7c9190613132565b600083815260076020526040902054909150808214611bcf576001600160a01b03841660009081526006602090815260408083208584528252808320548484528184208190558352600790915290208190555b5060009182526007602090815260408084208490556001600160a01b039094168352600681528383209183525290812055565b600854600090611c1490600190613132565b60008381526009602052604081205460088054939450909284908110611c3c57611c3c613221565b906000526020600020015490508060088381548110611c5d57611c5d613221565b6000918252602080832090910192909255828152600990915260408082208490558582528120556008805480611c9557611c9561320b565b6001900381819060005260206000200160009055905550505050565b6000611cbc83610bf0565b6001600160a01b039093166000908152600660209081526040808320868452825280832085905593825260079052919091209190915550565b60405180606001604052806003905b6060815260200190600190039081611d045790505090565b80356001600160a01b0381168114611d3357600080fd5b919050565b600060208284031215611d4a57600080fd5b611d5382611d1c565b9392505050565b60008060408385031215611d6d57600080fd5b611d7683611d1c565b9150611d8460208401611d1c565b90509250929050565b600080600060608486031215611da257600080fd5b611dab84611d1c565b9250611db960208501611d1c565b9150604084013590509250925092565b60008060008060808587031215611ddf57600080fd5b611de885611d1c565b9350611df660208601611d1c565b925060408501359150606085013567ffffffffffffffff80821115611e1a57600080fd5b818701915087601f830112611e2e57600080fd5b813581811115611e4057611e40613237565b604051601f8201601f19908116603f01168101908382118183101715611e6857611e68613237565b816040528281528a6020848701011115611e8157600080fd5b82602086016020830137600060208483010152809550505050505092959194509250565b60008060408385031215611eb857600080fd5b611ec183611d1c565b915060208301358015158114611ed657600080fd5b809150509250929050565b60008060408385031215611ef457600080fd5b611efd83611d1c565b946020939093013593505050565b600060208284031215611f1d57600080fd5b8135611d538161324d565b600060208284031215611f3a57600080fd5b8151611d538161324d565b600060208284031215611f5757600080fd5b5035919050565b60008151808452611f76816020860160208601613149565b601f01601f19169290920160200192915050565b7f3c7061746820636c6173733d22636c732d382220643d224d3236352e33392c3281527f32346131362e34392c31362e34392c302c302c302d382e37352d392e34372c3160208201527f322e33392c31322e33392c302c302c312d372e30392d31302e35372c35302e3760408201527f2c35302e372c302c302c302d3130312e31392c302c31322e34352c31322e343560608201527f2c302c302c312d372e30392c31302e364131362e34392c31362e34392c302c3060808201527f2c302c3133322e352c3232346131362e36392c31362e36392c302c302c302c3260a08201527f312e37332c32312e32352c31332e332c31332e332c302c302c312c31332e313860c08201527f2c312e36392c35302e392c35302e392c302c302c302c32322e33372c31302e3160e08201527f3763362e33312c312e31372c31312e31342c352e38352c31342c31312e3661326101008201527f332e332c32332e332c302c302c302c34342e31332d392e3332632e332d362e366101208201527f322c342e38342d31322c31302e34392d31352e34376131362e33372c31362e336101408201527f372c302c302c302c312e39322d312e33364131362e382c31362e382c302c302c6101608201526f1816191b1a97199c9619191a2d11179f60811b6101808201526101900190565b7f3c6720636c6173733d22636c732d36223e3c7061746820636c6173733d22636c81527f732d372220643d224d3236352e33392c3232392e35356131362e352c31362e3560208201527f2c302c302c302d382e37352d392e34362c31322e342c31322e342c302c302c3160408201527f2d372e30392d31302e35372c35302e372c35302e372c302c302c302d3130312e60608201527f31392c302c31322e34352c31322e34352c302c302c312d372e30392c31302e3660808201527f2c31362e34362c31362e34362c302c302c302d382e37372c392e34372c31362e60a08201527f372c31362e372c302c302c302c32312e37332c32312e32352c31332e332c313360c08201527f2e332c302c302c312c31332e31382c312e36392c35302e392c35302e392c302c60e08201527f302c302c32322e33372c31302e313763362e33312c312e31372c31312e31342c6101008201527f352e38352c31342c31312e366132332e332c32332e332c302c302c302c34342e6101208201527f31332d392e3332632e332d362e36322c342e38342d31322c31302e34392d31356101408201527f2e34376131392e31332c31392e31332c302c302c302c312e39322d312e3336416101608201527f31362e38312c31362e38312c302c302c302c3236352e33392c3232392e35355a6101808201526611179f1e17b39f60c91b6101a08201526101a70190565b6000845161238e818460208901613149565b8451908301906123a2818360208901613149565b84519101906123b5818360208801613149565b0195945050505050565b600082516123d1818460208701613149565b7f3c7465787420783d2232352220793d223235223e4c49434b533a200000000000920191825250601b01919050565b60008251612412818460208701613149565b61113b61263361262e612426848701612174565b7f3c6720636c6173733d22636c732d36223e3c7061746820636c6173733d22636c81527f732d372220643d224d3236352e33392c3136342e32336131362e352c31362e3560208201527f2c302c302c302d382e37352d392e34362c31322e342c31322e342c302c302c3160408201527f2d372e30392d31302e35372c35302e372c35302e372c302c302c302d3130312e60608201527f31392c302c31322e34352c31322e34352c302c302c312d372e30392c31302e3660808201527f2c31362e34362c31362e34362c302c302c302d382e37372c392e34372c31362e60a08201527f372c31362e372c302c302c302c32312e37332c32312e32352c31332e332c313360c08201527f2e332c302c302c312c31332e31382c312e36392c35302e392c35302e392c302c60e08201527f302c302c32322e33372c31302e313763362e33312c312e31372c31312e31342c6101008201527f352e38352c31342c31312e366132332e332c32332e332c302c302c302c34342e6101208201527f31332d392e3332632e332d362e36322c342e38342d31322c31302e34392d31356101408201527f2e34376131392e31332c31392e31332c302c302c302c312e39322d312e3336416101608201527f31362e38312c31362e38312c302c302c302c3236352e33392c3136342e32335a6101808201526611179f1e17b39f60c91b6101a08201526101a70190565b611f8a565b7f3c7061746820636c6173733d22636c732d392220643d224d3236352e33392c3181527f35382e36356131362e352c31362e352c302c302c302d382e37352d392e34362c60208201527f31322e33392c31322e33392c302c302c312d372e30392d31302e35372c35302e60408201527f372c35302e372c302c302c302d3130312e31392c302c31322e34352c31322e3460608201527f352c302c302c312d372e30392c31302e362c31362e34392c31362e34392c302c60808201527f302c302d382e37372c392e34372c31362e36392c31362e36392c302c302c302c60a08201527f32312e37332c32312e32352c31332e332c31332e332c302c302c312c31332e3160c08201527f382c312e36392c35302e392c35302e392c302c302c302c32322e33372c31302e60e08201527f313763362e33312c312e31372c31312e31342c352e38352c31342c31312e36416101008201527f32332e332c32332e332c302c302c302c3234372e392c313934632e332d362e366101208201527f322c342e38342d31322c31302e34392d31352e34376131362e33372c31362e336101408201527f372c302c302c302c312e39322d312e33364131362e38312c31362e38312c302c6101608201527418161816191b1a97199c96189a9c171b1aad11179f60591b6101808201526101950190565b60008251612834818460208701613149565b612842612426828501612174565b7f3c6720636c6173733d22636c732d36223e3c7061746820636c6173733d22636c81527f732d372220643d224d3236352e33392c3136342e32336131362e352c31362e3560208201527f2c302c302c302d382e37352d392e34362c31322e342c31322e342c302c302c3160408201527f2d372e30392d31302e35372c35302e372c35302e372c302c302c302d3130312e60608201527f31392c302c31322e34352c31322e34352c302c302c312d372e30392c31302e3660808201527f2c31362e34362c31362e34362c302c302c302d382e37372c392e34372c31362e60a08201527f372c31362e372c302c302c302c32312e37332c32312e32352c31332e332c313360c08201527f2e332c302c302c312c31332e31382c312e36392c35302e392c35302e392c302c60e08201527f302c302c32322e33372c31302e313763362e33312c312e31372c31312e31342c6101008201527f352e38352c31342c31312e366132332e332c32332e332c302c302c302c34342e6101208201527f31332d392e3332632e332d362e36322c342e38342d31322c31302e34392d31356101408201527f2e34376131392e31332c31392e31332c302c302c302c312e39322d312e3336416101608201527f31362e38312c31362e38312c302c302c302c3236352e33392c3136342e32335a6101808201527f222f3e3c2f673e3c6720636c6173733d22636c732d36223e3c7061746820636c6101a08201527f6173733d22636c732d372220643d224d3236352e33392c39382e39316131362e6101c08201527f352c31362e352c302c302c302d382e37352d392e34362c31322e342c31322e346101e08201527f2c302c302c312d372e30392d31302e35372c35302e372c35302e372c302c302c6102008201527f302d3130312e31392c302c31322e34352c31322e34352c302c302c312d372e306102208201527f392c31302e362c31362e34362c31362e34362c302c302c302d382e37372c392e6102408201527f34372c31362e372c31362e372c302c302c302c32312e37332c32312e32352c316102608201527f332e332c31332e332c302c302c312c31332e31382c312e36394135302e392c356102808201527f302e392c302c302c302c3138392e37382c31333263362e33312c312e31372c316102a08201527f312e31342c352e38352c31342c31312e366132332e332c32332e332c302c302c6102c08201527f302c34342e31332d392e3332632e332d362e36322c342e38342d31322c31302e6102e08201527f34392d31352e34376131392e31332c31392e31332c302c302c302c312e39322d6103008201527f312e33364131362e38312c31362e38312c302c302c302c3236352e33392c39386103208201526a171c98ad11179f1e17b39f60a91b610340820152905061113b612c5761263361034b8401611f8a565b7f3c7061746820636c6173733d22636c732d31302220643d224d3236352e33392c81527f39332e33336131362e352c31362e352c302c302c302d382e37352d392e34362c60208201527f31322e33392c31322e33392c302c302c312d372e30392d31302e35372c35302e60408201527f372c35302e372c302c302c302d3130312e31392c302c31322e34352c31322e3460608201527f352c302c302c312d372e30392c31302e362c31362e34392c31362e34392c302c60808201527f302c302d382e37372c392e34372c31362e36392c31362e36392c302c302c302c60a08201527f32312e37332c32312e32352c31332e332c31332e332c302c302c312c31332e3160c08201527f382c312e36392c35302e392c35302e392c302c302c302c32322e33372c31302e60e08201527f313763362e33312c312e31372c31312e31342c352e38352c31342c31312e36616101008201527f32332e332c32332e332c302c302c302c34342e31332d392e3332632e332d362e6101208201527f36322c342e38342d31322c31302e34392d31352e34376131362e33372c31362e6101408201527f33372c302c302c302c312e39322d312e33364131362e38312c31362e38312c30610160820152741618161816191b1a97199c961c99971999ad11179f60591b6101808201526101950190565b60008251612e58818460208701613149565b61113b61262e828501612174565b7f646174613a6170706c69636174696f6e2f6a736f6e3b6261736536342c000000815260008251612e9e81601d850160208701613149565b91909101601d0192915050565b6f7b226e616d65223a2022436f6e65202360801b81528251600090612ed7816010850160208801613149565b7f222c20226465736372697074696f6e223a2022546573742047656c61746f20416010918401918201527f75746f6d6174696f6e206279206175746f2d6c69636b696e6720796f7572207360308201527f776565742047656c61746f204e4654222c2022696d616765223a2022646174616050820152750e9a5b5859d94bdcdd99cade1b5b0ed8985cd94d8d0b60521b60708201528351612f7f816086840160208801613149565b61227d60f01b60869290910191820152608801949350505050565b6001600160a01b0385811682528416602082015260408101839052608060608201819052600090612fcd90830184611f5e565b9695505050505050565b602081526000611d536020830184611f5e565b60208082526032908201527f4552433732313a207472616e7366657220746f206e6f6e20455243373231526560408201527131b2b4bb32b91034b6b83632b6b2b73a32b960711b606082015260800190565b6020808252818101527f4f776e61626c653a2063616c6c6572206973206e6f7420746865206f776e6572604082015260600190565b60208082526031908201527f4552433732313a207472616e736665722063616c6c6572206973206e6f74206f6040820152701ddb995c881b9bdc88185c1c1c9bdd9959607a1b606082015260800190565b600082198211156130d5576130d56131df565b500190565b600060ff821660ff84168060ff038211156130f7576130f76131df565b019392505050565b60008261310e5761310e6131f5565b500490565b600081600019048311821515161561312d5761312d6131df565b500290565b600082821015613144576131446131df565b500390565b60005b8381101561316457818101518382015260200161314c565b83811115610de35750506000910152565b600181811c9082168061318957607f821691505b602082108114156131aa57634e487b7160e01b600052602260045260246000fd5b50919050565b60006000198214156131c4576131c46131df565b5060010190565b6000826131da576131da6131f5565b500690565b634e487b7160e01b600052601160045260246000fd5b634e487b7160e01b600052601260045260246000fd5b634e487b7160e01b600052603160045260246000fd5b634e487b7160e01b600052603260045260246000fd5b634e487b7160e01b600052604160045260246000fd5b6001600160e01b0319811681146108b157600080fdfe3c73766720786d6c6e733d22687474703a2f2f7777772e77332e6f72672f323030302f7376672220786d6c6e733a786c696e6b3d22687474703a2f2f7777772e77332e6f72672f313939392f786c696e6b222076696577426f783d223020302034303020343030223e3c646566733e3c7374796c653e2e636c732d317b66696c6c3a236661653763653b7d2e636c732d327b66696c6c3a75726c28236c696e6561722d6772616469656e74293b7d2e636c732d337b66696c6c3a75726c28236c696e6561722d6772616469656e742d32293b7d2e636c732d347b66696c6c3a75726c28236c696e6561722d6772616469656e742d33293b7d2e636c732d357b66696c6c3a75726c28236c696e6561722d6772616469656e742d34293b7d2e636c732d367b6f7061636974793a302e333b7d2e636c732d377b66696c6c3a233335323131633b7d2e636c732d387b66696c6c3a75726c282372616469616c2d6772616469656e74293b7d2e636c732d397b66696c6c3a75726c282372616469616c2d6772616469656e742d32293b7d2e636c732d31307b66696c6c3a75726c282372616469616c2d6772616469656e742d33293b7d3c2f7374796c653e3c6c696e6561724772616469656e742069643d226c696e6561722d6772616469656e74222078313d223136382e3838222079313d22333331222078323d223231382e3839222079323d2233333122206772616469656e74556e6974733d227573657253706163654f6e557365223e3c73746f70206f66667365743d22302e3139222073746f702d636f6c6f723d2223666664373838222f3e3c73746f70206f66667365743d22302e3936222073746f702d636f6c6f723d2223663761323635222f3e3c2f6c696e6561724772616469656e743e3c6c696e6561724772616469656e742069643d226c696e6561722d6772616469656e742d32222078313d223135352e3634222079313d223330332e3137222078323d223232372e3637222079323d223330332e31372220786c696e6b3a687265663d22236c696e6561722d6772616469656e74222f3e3c6c696e6561724772616469656e742069643d226c696e6561722d6772616469656e742d33222078313d223134342e3233222079313d223237372e3636222078323d223235332e3636222079323d223237372e36362220786c696e6b3a687265663d22236c696e6561722d6772616469656e74222f3e3c6c696e6561724772616469656e742069643d226c696e6561722d6772616469656e742d34222078313d223138322e3132222079313d223335382e3631222078323d223231302e31222079323d223335382e36312220786c696e6b3a687265663d22236c696e6561722d6772616469656e74222f3e3c72616469616c4772616469656e742069643d2272616469616c2d6772616469656e74222063783d223137342e3135222063793d223139322e32372220723d223130322e393622206772616469656e74556e6974733d227573657253706163654f6e557365223e3c73746f70206f66667365743d2230222073746f702d636f6c6f723d2223666664396432222f3e3c73746f70206f66667365743d22302e3034222073746f702d636f6c6f723d2223666664356366222f3e3c73746f70206f66667365743d22302e3235222073746f702d636f6c6f723d2223666663356334222f3e3c73746f70206f66667365743d22302e3431222073746f702d636f6c6f723d2223666663306330222f3e3c73746f70206f66667365743d22302e36222073746f702d636f6c6f723d2223666662646264222f3e3c73746f70206f66667365743d22302e3735222073746f702d636f6c6f723d2223666562326232222f3e3c73746f70206f66667365743d22302e39222073746f702d636f6c6f723d2223666461306130222f3e3c73746f70206f66667365743d2231222073746f702d636f6c6f723d2223666339303930222f3e3c2f72616469616c4772616469656e743e3c72616469616c4772616469656e742069643d2272616469616c2d6772616469656e742d32222063783d223137382e3839222063793d223132352e36342220723d2238392e323322206772616469656e74556e6974733d227573657253706163654f6e557365223e3c73746f70206f66667365743d2230222073746f702d636f6c6f723d2223666666222f3e3c73746f70206f66667365743d22302e3237222073746f702d636f6c6f723d2223666666636566222f3e3c73746f70206f66667365743d22302e3438222073746f702d636f6c6f723d2223666666626539222f3e3c73746f70206f66667365743d2231222073746f702d636f6c6f723d2223666366326361222f3e3c2f72616469616c4772616469656e743e3c72616469616c4772616469656e742069643d2272616469616c2d6772616469656e742d33222063783d223138302e3634222063793d2236302e38362220723d2239382e313522206772616469656e74556e6974733d227573657253706163654f6e557365223e3c73746f70206f66667365743d2230222073746f702d636f6c6f723d2223666666396139222f3e3c73746f70206f66667365743d22302e3437222073746f702d636f6c6f723d2223666664383939222f3e3c73746f70206f66667365743d22302e3731222073746f702d636f6c6f723d2223663062363632222f3e3c73746f70206f66667365743d22302e39222073746f702d636f6c6f723d2223653639643363222f3e3c73746f70206f66667365743d2231222073746f702d636f6c6f723d2223653239343264222f3e3c2f72616469616c4772616469656e743e3c2f646566733e3c7265637420636c6173733d22636c732d31222077696474683d2234303022206865696768743d22343030222f3e3c706f6c79676f6e20636c6173733d22636c732d322220706f696e74733d223231382e3839203333352e32203136382e3838203330392e3633203137392e3132203333352e35203231322e3039203335322e3337203231382e3839203333352e32222f3e3c706f6c79676f6e20636c6173733d22636c732d332220706f696e74733d223136352e3838203330322e3035203232302e3837203333302e3138203232372e3637203331332e3031203135352e3634203237362e3137203136352e3838203330322e3035222f3e3c706f6c79676f6e20636c6173733d22636c732d342220706f696e74733d223232392e3636203330372e3939203235332e3636203234372e3334203134342e3233203234372e3334203135322e3634203236382e3539203232392e3636203330372e3939222f3e3c7061746820636c6173733d22636c732d352220643d224d3138322e31322c3334332e30386c31302e36322c32362e383461362e36372c362e36372c302c302c302c31322e34312c306c342e39352d31322e35325a222f3e4142434445464748494a4b4c4d4e4f505152535455565758595a6162636465666768696a6b6c6d6e6f707172737475767778797a303132333435363738392b2f3c73766720786d6c6e733d22687474703a2f2f7777772e77332e6f72672f323030302f7376672220786d6c6e733a786c696e6b3d22687474703a2f2f7777772e77332e6f72672f313939392f786c696e6b222076696577426f783d223020302034303020343030223e3c646566733e3c7374796c653e2e636c732d317b66696c6c3a236661653763653b7d3c2f7374796c653e3c2f646566733e3c7265637420636c6173733d22636c732d31222077696474683d2234303022206865696768743d22343030222f3e3c7465787420783d223138352220793d22323030223e59554d213c2f746578743ea2646970667358221220a68e77cd166fd049a422286eb12414461afd50ca49d3c703d9ab489e4718c09064736f6c63430008070033",
  "devdoc": {
    "kind": "dev",
    "methods": {
      "approve(address,uint256)": {
        "details": "See {IERC721-approve}."
      },
      "balanceOf(address)": {
        "details": "See {IERC721-balanceOf}."
      },
      "getApproved(uint256)": {
        "details": "See {IERC721-getApproved}."
      },
      "isApprovedForAll(address,address)": {
        "details": "See {IERC721-isApprovedForAll}."
      },
      "name()": {
        "details": "See {IERC721Metadata-name}."
      },
      "owner()": {
        "details": "Returns the address of the current owner."
      },
      "ownerOf(uint256)": {
        "details": "See {IERC721-ownerOf}."
      },
      "paused()": {
        "details": "Returns true if the contract is paused, and false otherwise."
      },
      "renounceOwnership()": {
        "details": "Leaves the contract without owner. It will not be possible to call `onlyOwner` functions anymore. Can only be called by the current owner. NOTE: Renouncing ownership will leave the contract without an owner, thereby removing any functionality that is only available to the owner."
      },
      "safeTransferFrom(address,address,uint256)": {
        "details": "See {IERC721-safeTransferFrom}."
      },
      "safeTransferFrom(address,address,uint256,bytes)": {
        "details": "See {IERC721-safeTransferFrom}."
      },
      "setApprovalForAll(address,bool)": {
        "details": "See {IERC721-setApprovalForAll}."
      },
      "supportsInterface(bytes4)": {
        "details": "See {IERC165-supportsInterface}."
      },
      "symbol()": {
        "details": "See {IERC721Metadata-symbol}."
      },
      "tokenByIndex(uint256)": {
        "details": "See {IERC721Enumerable-tokenByIndex}."
      },
      "tokenOfOwnerByIndex(address,uint256)": {
        "details": "See {IERC721Enumerable-tokenOfOwnerByIndex}."
      },
      "totalSupply()": {
        "details": "See {IERC721Enumerable-totalSupply}."
      },
      "transferFrom(address,address,uint256)": {
        "details": "See {IERC721-transferFrom}."
      },
      "transferOwnership(address)": {
        "details": "Transfers ownership of the contract to a new account (`newOwner`). Can only be called by the current owner."
      }
    },
    "version": 1
  },
  "userdoc": {
    "kind": "user",
    "methods": {},
    "version": 1
  },
  "storageLayout": {
    "storage": [
      {
        "astId": 221,
        "contract": "contracts/IceCreamNFT.sol:IceCreamNFT",
        "label": "_name",
        "offset": 0,
        "slot": "0",
        "type": "t_string_storage"
      },
      {
        "astId": 223,
        "contract": "contracts/IceCreamNFT.sol:IceCreamNFT",
        "label": "_symbol",
        "offset": 0,
        "slot": "1",
        "type": "t_string_storage"
      },
      {
        "astId": 227,
        "contract": "contracts/IceCreamNFT.sol:IceCreamNFT",
        "label": "_owners",
        "offset": 0,
        "slot": "2",
        "type": "t_mapping(t_uint256,t_address)"
      },
      {
        "astId": 231,
        "contract": "contracts/IceCreamNFT.sol:IceCreamNFT",
        "label": "_balances",
        "offset": 0,
        "slot": "3",
        "type": "t_mapping(t_address,t_uint256)"
      },
      {
        "astId": 235,
        "contract": "contracts/IceCreamNFT.sol:IceCreamNFT",
        "label": "_tokenApprovals",
        "offset": 0,
        "slot": "4",
        "type": "t_mapping(t_uint256,t_address)"
      },
      {
        "astId": 241,
        "contract": "contracts/IceCreamNFT.sol:IceCreamNFT",
        "label": "_operatorApprovals",
        "offset": 0,
        "slot": "5",
        "type": "t_mapping(t_address,t_mapping(t_address,t_bool))"
      },
      {
        "astId": 1160,
        "contract": "contracts/IceCreamNFT.sol:IceCreamNFT",
        "label": "_ownedTokens",
        "offset": 0,
        "slot": "6",
        "type": "t_mapping(t_address,t_mapping(t_uint256,t_uint256))"
      },
      {
        "astId": 1164,
        "contract": "contracts/IceCreamNFT.sol:IceCreamNFT",
        "label": "_ownedTokensIndex",
        "offset": 0,
        "slot": "7",
        "type": "t_mapping(t_uint256,t_uint256)"
      },
      {
        "astId": 1167,
        "contract": "contracts/IceCreamNFT.sol:IceCreamNFT",
        "label": "_allTokens",
        "offset": 0,
        "slot": "8",
        "type": "t_array(t_uint256)dyn_storage"
      },
      {
        "astId": 1171,
        "contract": "contracts/IceCreamNFT.sol:IceCreamNFT",
        "label": "_allTokensIndex",
        "offset": 0,
        "slot": "9",
        "type": "t_mapping(t_uint256,t_uint256)"
      },
      {
        "astId": 7,
        "contract": "contracts/IceCreamNFT.sol:IceCreamNFT",
        "label": "_owner",
        "offset": 0,
        "slot": "10",
        "type": "t_address"
      },
      {
        "astId": 121,
        "contract": "contracts/IceCreamNFT.sol:IceCreamNFT",
        "label": "_paused",
        "offset": 20,
        "slot": "10",
        "type": "t_bool"
      },
      {
        "astId": 2179,
        "contract": "contracts/IceCreamNFT.sol:IceCreamNFT",
        "label": "licks",
        "offset": 0,
        "slot": "11",
        "type": "t_mapping(t_uint256,t_uint256)"
      },
      {
        "astId": 2183,
        "contract": "contracts/IceCreamNFT.sol:IceCreamNFT",
        "label": "lickTime",
        "offset": 0,
        "slot": "12",
        "type": "t_mapping(t_uint256,t_uint256)"
      },
      {
        "astId": 2187,
        "contract": "contracts/IceCreamNFT.sol:IceCreamNFT",
        "label": "hasClaimed",
        "offset": 0,
        "slot": "13",
        "type": "t_mapping(t_address,t_bool)"
      }
    ],
    "types": {
      "t_address": {
        "encoding": "inplace",
        "label": "address",
        "numberOfBytes": "20"
      },
      "t_array(t_uint256)dyn_storage": {
        "base": "t_uint256",
        "encoding": "dynamic_array",
        "label": "uint256[]",
        "numberOfBytes": "32"
      },
      "t_bool": {
        "encoding": "inplace",
        "label": "bool",
        "numberOfBytes": "1"
      },
      "t_mapping(t_address,t_bool)": {
        "encoding": "mapping",
        "key": "t_address",
        "label": "mapping(address => bool)",
        "numberOfBytes": "32",
        "value": "t_bool"
      },
      "t_mapping(t_address,t_mapping(t_address,t_bool))": {
        "encoding": "mapping",
        "key": "t_address",
        "label": "mapping(address => mapping(address => bool))",
        "numberOfBytes": "32",
        "value": "t_mapping(t_address,t_bool)"
      },
      "t_mapping(t_address,t_mapping(t_uint256,t_uint256))": {
        "encoding": "mapping",
        "key": "t_address",
        "label": "mapping(address => mapping(uint256 => uint256))",
        "numberOfBytes": "32",
        "value": "t_mapping(t_uint256,t_uint256)"
      },
      "t_mapping(t_address,t_uint256)": {
        "encoding": "mapping",
        "key": "t_address",
        "label": "mapping(address => uint256)",
        "numberOfBytes": "32",
        "value": "t_uint256"
      },
      "t_mapping(t_uint256,t_address)": {
        "encoding": "mapping",
        "key": "t_uint256",
        "label": "mapping(uint256 => address)",
        "numberOfBytes": "32",
        "value": "t_address"
      },
      "t_mapping(t_uint256,t_uint256)": {
        "encoding": "mapping",
        "key": "t_uint256",
        "label": "mapping(uint256 => uint256)",
        "numberOfBytes": "32",
        "value": "t_uint256"
      },
      "t_string_storage": {
        "encoding": "bytes",
        "label": "string",
        "numberOfBytes": "32"
      },
      "t_uint256": {
        "encoding": "inplace",
        "label": "uint256",
        "numberOfBytes": "32"
      }
    }
  }
}