{
  "address": "0xaAa7C185Ebf0E1A16f891d71AFc61DB9a02C5B4c",
  "abi": [
    {
      "inputs": [
        {
          "internalType": "contract IIceCreamNFT",
          "name": "_IceCreamNFT",
          "type": "address"
        },
        {
          "internalType": "contract ICredits",
          "name": "_gelatoCredits",
          "type": "address"
        }
      ],
      "stateMutability": "nonpayable",
      "type": "constructor"
    },
    {
      "anonymous": false,
      "inputs": [
        {
          "indexed": false,
          "internalType": "address",
          "name": "claimer",
          "type": "address"
        },
        {
          "indexed": false,
          "internalType": "uint256",
          "name": "index",
          "type": "uint256"
        },
        {
          "indexed": false,
          "internalType": "uint256",
          "name": "creditsAdded",
          "type": "uint256"
        }
      ],
      "name": "ClaimTutorial",
      "type": "event"
    },
    {
      "anonymous": false,
      "inputs": [
        {
          "indexed": true,
          "internalType": "address",
          "name": "previousOwner",
          "type": "address"
        },
        {
          "indexed": true,
          "internalType": "address",
          "name": "newOwner",
          "type": "address"
        }
      ],
      "name": "OwnershipTransferred",
      "type": "event"
    },
    {
      "inputs": [],
      "name": "claimTutorial",
      "outputs": [],
      "stateMutability": "nonpayable",
      "type": "function"
    },
    {
      "inputs": [],
      "name": "gelatoCredits",
      "outputs": [
        {
          "internalType": "contract ICredits",
          "name": "",
          "type": "address"
        }
      ],
      "stateMutability": "view",
      "type": "function"
    },
    {
      "inputs": [],
      "name": "iceCreamNFT",
      "outputs": [
        {
          "internalType": "contract IIceCreamNFT",
          "name": "",
          "type": "address"
        }
      ],
      "stateMutability": "view",
      "type": "function"
    },
    {
      "inputs": [],
      "name": "owner",
      "outputs": [
        {
          "internalType": "address",
          "name": "",
          "type": "address"
        }
      ],
      "stateMutability": "view",
      "type": "function"
    },
    {
      "inputs": [],
      "name": "renounceOwnership",
      "outputs": [],
      "stateMutability": "nonpayable",
      "type": "function"
    },
    {
      "inputs": [
        {
          "internalType": "address",
          "name": "newOwner",
          "type": "address"
        }
      ],
      "name": "transferOwnership",
      "outputs": [],
      "stateMutability": "nonpayable",
      "type": "function"
    },
    {
      "inputs": [
        {
          "internalType": "address",
          "name": "_newOwner",
          "type": "address"
        }
      ],
      "name": "transferShopOwnership",
      "outputs": [],
      "stateMutability": "nonpayable",
      "type": "function"
    }
  ],
  "transactionHash": "0xc6dbbd44b086de826838a1084065b012915946a5e55b257e448063276ff9bedf",
  "args": [
    "0x02386322Ce32020817b57D8843e733c78a8C4Caa",
    "0x5BC6722ff0341A19E3d6364683bF3ab53828BFBF"
  ],
  "solcInputHash": "d4d463959d65da38480cd5521b3647c5",
  "bytecode": "0x60c060405234801561001057600080fd5b5060405161083438038061083483398101604081905261002f916100a6565b61003833610056565b6001600160601b0319606092831b8116608052911b1660a0526100f8565b600080546001600160a01b038381166001600160a01b0319831681178455604051919092169283917f8be0079c531659141344cd1fd0a4f28419497f9722a3daafe3b4186f6b6457e09190a35050565b600080604083850312156100b957600080fd5b82516100c4816100e0565b60208401519092506100d5816100e0565b809150509250929050565b6001600160a01b03811681146100f557600080fd5b50565b60805160601c60a05160601c6106e961014b6000396000818160e7015281816103df015261047e01526000818160870152818161018701528181610234015281816102cf015261033501526106e96000f3fe608060405234801561001057600080fd5b506004361061007d5760003560e01c806373d086941161005b57806373d08694146100e25780638da5cb5b14610109578063c6935a241461011a578063f2fde38b1461012257600080fd5b8063251e80ca14610082578063562fa03d146100c5578063715018a6146100da575b600080fd5b6100a97f000000000000000000000000000000000000000000000000000000000000000081565b6040516001600160a01b03909116815260200160405180910390f35b6100d86100d3366004610613565b610135565b005b6100d86101e6565b6100a97f000000000000000000000000000000000000000000000000000000000000000081565b6000546001600160a01b03166100a9565b6100d861021c565b6100d8610130366004610613565b610528565b6000546001600160a01b031633146101685760405162461bcd60e51b815260040161015f9061067e565b60405180910390fd5b60405163f2fde38b60e01b81526001600160a01b0382811660048301527f0000000000000000000000000000000000000000000000000000000000000000169063f2fde38b90602401600060405180830381600087803b1580156101cb57600080fd5b505af11580156101df573d6000803e3d6000fd5b5050505050565b6000546001600160a01b031633146102105760405162461bcd60e51b815260040161015f9061067e565b61021a60006105c3565b565b6040516339d9740760e11b81523360048201526000907f00000000000000000000000000000000000000000000000000000000000000006001600160a01b0316906373b2e80e9060240160206040518083038186803b15801561027e57600080fd5b505afa158015610292573d6000803e3d6000fd5b505050506040513d601f19601f820116820180604052508101906102b69190610643565b6103c7576040516335313c2160e11b81523360048201527f00000000000000000000000000000000000000000000000000000000000000006001600160a01b031690636a62784290602401600060405180830381600087803b15801561031b57600080fd5b505af115801561032f573d6000803e3d6000fd5b505050507f00000000000000000000000000000000000000000000000000000000000000006001600160a01b03166318160ddd6040518163ffffffff1660e01b815260040160206040518083038186803b15801561038c57600080fd5b505afa1580156103a0573d6000803e3d6000fd5b505050506040513d601f19601f820116820180604052508101906103c49190610665565b90505b60405163402914f560e01b81523360048201526000907f00000000000000000000000000000000000000000000000000000000000000006001600160a01b03169063402914f59060240160206040518083038186803b15801561042957600080fd5b505afa15801561043d573d6000803e3d6000fd5b505050506040513d601f19601f820116820180604052508101906104619190610665565b905080156104e357604051630f41a04d60e11b81523360048201527f00000000000000000000000000000000000000000000000000000000000000006001600160a01b031690631e83409a90602401600060405180830381600087803b1580156104ca57600080fd5b505af11580156104de573d6000803e3d6000fd5b505050505b60408051338152602081018490529081018290527f9dda022d71232eac479926cb29132b35c47a3a871e0abe3ff901e64c15773f279060600160405180910390a15050565b6000546001600160a01b031633146105525760405162461bcd60e51b815260040161015f9061067e565b6001600160a01b0381166105b75760405162461bcd60e51b815260206004820152602660248201527f4f776e61626c653a206e6577206f776e657220697320746865207a65726f206160448201526564647265737360d01b606482015260840161015f565b6105c0816105c3565b50565b600080546001600160a01b038381166001600160a01b0319831681178455604051919092169283917f8be0079c531659141344cd1fd0a4f28419497f9722a3daafe3b4186f6b6457e09190a35050565b60006020828403121561062557600080fd5b81356001600160a01b038116811461063c57600080fd5b9392505050565b60006020828403121561065557600080fd5b8151801515811461063c57600080fd5b60006020828403121561067757600080fd5b5051919050565b6020808252818101527f4f776e61626c653a2063616c6c6572206973206e6f7420746865206f776e657260408201526060019056fea26469706673582212203698e634c894d0085b4e1ffd480cee8ca360cadd83b4b94e38b417aa6507102864736f6c63430008070033",
  "devdoc": {
    "kind": "dev",
    "methods": {
      "owner()": {
        "details": "Returns the address of the current owner."
      },
      "renounceOwnership()": {
        "details": "Leaves the contract without owner. It will not be possible to call `onlyOwner` functions anymore. Can only be called by the current owner. NOTE: Renouncing ownership will leave the contract without an owner, thereby removing any functionality that is only available to the owner."
      },
      "transferOwnership(address)": {
        "details": "Transfers ownership of the contract to a new account (`newOwner`). Can only be called by the current owner."
      }
    },
    "version": 1
  },
  "userdoc": {
    "kind": "user",
    "methods": {},
    "version": 1
  },
  "storageLayout": {
    "storage": [
      {
        "astId": 7,
        "contract": "contracts/GelatoTutorial.sol:GelatoTutorial",
        "label": "_owner",
        "offset": 0,
        "slot": "0",
        "type": "t_address"
      }
    ],
    "types": {
      "t_address": {
        "encoding": "inplace",
        "label": "address",
        "numberOfBytes": "20"
      }
    }
  }
}