{
  "address": "0xe130469f7005509dE058f1cB6a5d44c42f8985d5",
  "abi": [
    {
      "inputs": [
        {
          "internalType": "contract IGelatoShop",
          "name": "_gelatoShop",
          "type": "address"
        },
        {
          "internalType": "contract ICredits",
          "name": "_gelatoCredits",
          "type": "address"
        }
      ],
      "stateMutability": "nonpayable",
      "type": "constructor"
    },
    {
      "anonymous": false,
      "inputs": [
        {
          "indexed": false,
          "internalType": "address",
          "name": "claimer",
          "type": "address"
        },
        {
          "indexed": false,
          "internalType": "uint256",
          "name": "index",
          "type": "uint256"
        },
        {
          "indexed": false,
          "internalType": "uint256",
          "name": "creditsAdded",
          "type": "uint256"
        }
      ],
      "name": "ClaimTutorial",
      "type": "event"
    },
    {
      "anonymous": false,
      "inputs": [
        {
          "indexed": true,
          "internalType": "address",
          "name": "previousOwner",
          "type": "address"
        },
        {
          "indexed": true,
          "internalType": "address",
          "name": "newOwner",
          "type": "address"
        }
      ],
      "name": "OwnershipTransferred",
      "type": "event"
    },
    {
      "inputs": [],
      "name": "claimTutorial",
      "outputs": [],
      "stateMutability": "nonpayable",
      "type": "function"
    },
    {
      "inputs": [],
      "name": "gelatoCredits",
      "outputs": [
        {
          "internalType": "contract ICredits",
          "name": "",
          "type": "address"
        }
      ],
      "stateMutability": "view",
      "type": "function"
    },
    {
      "inputs": [],
      "name": "gelatoShop",
      "outputs": [
        {
          "internalType": "contract IGelatoShop",
          "name": "",
          "type": "address"
        }
      ],
      "stateMutability": "view",
      "type": "function"
    },
    {
      "inputs": [],
      "name": "owner",
      "outputs": [
        {
          "internalType": "address",
          "name": "",
          "type": "address"
        }
      ],
      "stateMutability": "view",
      "type": "function"
    },
    {
      "inputs": [],
      "name": "renounceOwnership",
      "outputs": [],
      "stateMutability": "nonpayable",
      "type": "function"
    },
    {
      "inputs": [
        {
          "internalType": "address",
          "name": "newOwner",
          "type": "address"
        }
      ],
      "name": "transferOwnership",
      "outputs": [],
      "stateMutability": "nonpayable",
      "type": "function"
    },
    {
      "inputs": [
        {
          "internalType": "address",
          "name": "_newOwner",
          "type": "address"
        }
      ],
      "name": "transferShopOwnership",
      "outputs": [],
      "stateMutability": "nonpayable",
      "type": "function"
    }
  ],
  "transactionHash": "0x5a8c477e175d8a88adc2433e6cb6b2055b037f249bf638ae57ba14cba1ab43af",
  "args": [
    "0x249e7CE767e213D898B8de99024F0b08b1C42940",
    "0x34Ab6024C3e84684F99D6f2904Af490e5B8122b6"
  ],
  "solcInputHash": "737481ed811366cc9b2d3ad475188e0a",
  "bytecode": "0x60c060405234801561001057600080fd5b5060405161076f38038061076f83398101604081905261002f916100a6565b61003833610056565b6001600160601b0319606092831b8116608052911b1660a0526100f8565b600080546001600160a01b038381166001600160a01b0319831681178455604051919092169283917f8be0079c531659141344cd1fd0a4f28419497f9722a3daafe3b4186f6b6457e09190a35050565b600080604083850312156100b957600080fd5b82516100c4816100e0565b60208401519092506100d5816100e0565b809150509250929050565b6001600160a01b03811681146100f557600080fd5b50565b60805160601c60a05160601c61062b6101446000396000818160a40152818161034b01526103e201526000818160f801528181610187015281816102310152610299015261062b6000f3fe608060405234801561001057600080fd5b506004361061007d5760003560e01c80638da5cb5b1161005b5780638da5cb5b146100e2578063b61b3873146100f3578063c6935a241461011a578063f2fde38b1461012257600080fd5b8063562fa03d14610082578063715018a61461009757806373d086941461009f575b600080fd5b610095610090366004610577565b610135565b005b6100956101e6565b6100c67f000000000000000000000000000000000000000000000000000000000000000081565b6040516001600160a01b03909116815260200160405180910390f35b6000546001600160a01b03166100c6565b6100c67f000000000000000000000000000000000000000000000000000000000000000081565b61009561021c565b610095610130366004610577565b61048c565b6000546001600160a01b031633146101685760405162461bcd60e51b815260040161015f906105c0565b60405180910390fd5b60405163f2fde38b60e01b81526001600160a01b0382811660048301527f0000000000000000000000000000000000000000000000000000000000000000169063f2fde38b90602401600060405180830381600087803b1580156101cb57600080fd5b505af11580156101df573d6000803e3d6000fd5b5050505050565b6000546001600160a01b031633146102105760405162461bcd60e51b815260040161015f906105c0565b61021a6000610527565b565b6040516335313c2160e11b81523360048201527f00000000000000000000000000000000000000000000000000000000000000006001600160a01b031690636a62784290602401600060405180830381600087803b15801561027d57600080fd5b505af1158015610291573d6000803e3d6000fd5b5050505060007f00000000000000000000000000000000000000000000000000000000000000006001600160a01b03166318160ddd6040518163ffffffff1660e01b815260040160206040518083038186803b1580156102f057600080fd5b505afa158015610304573d6000803e3d6000fd5b505050506040513d601f19601f8201168201806040525081019061032891906105a7565b60405163402914f560e01b81523360048201529091506000906001600160a01b037f0000000000000000000000000000000000000000000000000000000000000000169063402914f59060240160206040518083038186803b15801561038d57600080fd5b505afa1580156103a1573d6000803e3d6000fd5b505050506040513d601f19601f820116820180604052508101906103c591906105a7565b9050801561044757604051630f41a04d60e11b81523360048201527f00000000000000000000000000000000000000000000000000000000000000006001600160a01b031690631e83409a90602401600060405180830381600087803b15801561042e57600080fd5b505af1158015610442573d6000803e3d6000fd5b505050505b60408051338152602081018490529081018290527f9dda022d71232eac479926cb29132b35c47a3a871e0abe3ff901e64c15773f279060600160405180910390a15050565b6000546001600160a01b031633146104b65760405162461bcd60e51b815260040161015f906105c0565b6001600160a01b03811661051b5760405162461bcd60e51b815260206004820152602660248201527f4f776e61626c653a206e6577206f776e657220697320746865207a65726f206160448201526564647265737360d01b606482015260840161015f565b61052481610527565b50565b600080546001600160a01b038381166001600160a01b0319831681178455604051919092169283917f8be0079c531659141344cd1fd0a4f28419497f9722a3daafe3b4186f6b6457e09190a35050565b60006020828403121561058957600080fd5b81356001600160a01b03811681146105a057600080fd5b9392505050565b6000602082840312156105b957600080fd5b5051919050565b6020808252818101527f4f776e61626c653a2063616c6c6572206973206e6f7420746865206f776e657260408201526060019056fea2646970667358221220066b80c48fa3fb4bc5ab111512cdbb25a0b4985fd0040c08ec3e1670c13a4c1b64736f6c63430008070033",
  "devdoc": {
    "kind": "dev",
    "methods": {
      "owner()": {
        "details": "Returns the address of the current owner."
      },
      "renounceOwnership()": {
        "details": "Leaves the contract without owner. It will not be possible to call `onlyOwner` functions anymore. Can only be called by the current owner. NOTE: Renouncing ownership will leave the contract without an owner, thereby removing any functionality that is only available to the owner."
      },
      "transferOwnership(address)": {
        "details": "Transfers ownership of the contract to a new account (`newOwner`). Can only be called by the current owner."
      }
    },
    "version": 1
  },
  "userdoc": {
    "kind": "user",
    "methods": {},
    "version": 1
  },
  "storageLayout": {
    "storage": [
      {
        "astId": 7,
        "contract": "contracts/GelatoTutorial.sol:GelatoTutorial",
        "label": "_owner",
        "offset": 0,
        "slot": "0",
        "type": "t_address"
      }
    ],
    "types": {
      "t_address": {
        "encoding": "inplace",
        "label": "address",
        "numberOfBytes": "20"
      }
    }
  }
}